{
  "_format": "hh-sol-artifact-1",
  "contractName": "FHFTickets",
  "sourceName": "contracts/FHFTickets.sol",
  "abi": [
    {
      "inputs": [
        {
          "internalType": "address",
          "name": "_collection",
          "type": "address"
        }
      ],
      "stateMutability": "nonpayable",
      "type": "constructor"
    },
    {
      "anonymous": false,
      "inputs": [
        {
          "indexed": true,
          "internalType": "address",
          "name": "by",
          "type": "address"
        },
        {
          "indexed": false,
          "internalType": "uint256",
          "name": "tokenId",
          "type": "uint256"
        }
      ],
      "name": "TicketUsed",
      "type": "event"
    },
    {
      "anonymous": false,
      "inputs": [
        {
          "components": [
            {
              "internalType": "address",
              "name": "eth",
              "type": "address"
            },
            {
              "internalType": "uint256",
              "name": "sub",
              "type": "uint256"
            }
          ],
          "indexed": true,
          "internalType": "struct CrossAddress",
          "name": "to",
          "type": "tuple"
        },
        {
          "indexed": false,
          "internalType": "uint256",
          "name": "count",
          "type": "uint256"
        }
      ],
      "name": "TicketsDropped",
      "type": "event"
    },
    {
      "inputs": [],
      "name": "NEW_TICKET_IMAGE_URL",
      "outputs": [
        {
          "internalType": "bytes",
          "name": "",
          "type": "bytes"
        }
      ],
      "stateMutability": "view",
      "type": "function"
    },
    {
      "inputs": [],
      "name": "USED_TICKET_IMAGE_URL",
      "outputs": [
        {
          "internalType": "bytes",
          "name": "",
          "type": "bytes"
        }
      ],
      "stateMutability": "view",
      "type": "function"
    },
    {
      "inputs": [],
      "name": "collection",
      "outputs": [
        {
          "internalType": "address",
          "name": "",
          "type": "address"
        }
      ],
      "stateMutability": "view",
      "type": "function"
    },
    {
      "inputs": [
        {
          "internalType": "address",
          "name": "_to",
          "type": "address"
        },
        {
          "internalType": "uint256",
          "name": "_count",
          "type": "uint256"
        }
      ],
      "name": "dropTickets",
      "outputs": [],
      "stateMutability": "nonpayable",
      "type": "function"
    },
    {
      "inputs": [
        {
          "components": [
            {
              "internalType": "address",
              "name": "eth",
              "type": "address"
            },
            {
              "internalType": "uint256",
              "name": "sub",
              "type": "uint256"
            }
          ],
          "internalType": "struct CrossAddress[]",
          "name": "_to",
          "type": "tuple[]"
        },
        {
          "internalType": "uint256",
          "name": "_count",
          "type": "uint256"
        }
      ],
      "name": "dropTicketsBatchCross",
      "outputs": [],
      "stateMutability": "nonpayable",
      "type": "function"
    },
    {
      "inputs": [
        {
          "internalType": "address",
          "name": "_address",
          "type": "address"
        }
      ],
      "name": "isAdmin",
      "outputs": [
        {
          "internalType": "bool",
          "name": "",
          "type": "bool"
        }
      ],
      "stateMutability": "view",
      "type": "function"
    },
    {
      "inputs": [
        {
          "internalType": "address",
          "name": "_collection",
          "type": "address"
        }
      ],
      "name": "setCollection",
      "outputs": [],
      "stateMutability": "nonpayable",
      "type": "function"
    },
    {
      "inputs": [
        {
          "internalType": "string",
          "name": "_url",
          "type": "string"
        }
      ],
      "name": "setNewTicketImageUrl",
      "outputs": [],
      "stateMutability": "nonpayable",
      "type": "function"
    },
    {
      "inputs": [
        {
          "internalType": "string",
          "name": "_url",
          "type": "string"
        }
      ],
      "name": "setUsedTicketImageUrl",
      "outputs": [],
      "stateMutability": "nonpayable",
      "type": "function"
    },
    {
      "inputs": [
        {
          "internalType": "address",
          "name": "account",
          "type": "address"
        }
      ],
      "name": "toString",
      "outputs": [
        {
          "internalType": "string",
          "name": "",
          "type": "string"
        }
      ],
      "stateMutability": "pure",
      "type": "function"
    },
    {
      "inputs": [
        {
          "internalType": "uint256",
          "name": "value",
          "type": "uint256"
        }
      ],
      "name": "toString",
      "outputs": [
        {
          "internalType": "string",
          "name": "",
          "type": "string"
        }
      ],
      "stateMutability": "pure",
      "type": "function"
    },
    {
      "inputs": [
        {
          "internalType": "bytes",
          "name": "data",
          "type": "bytes"
        }
      ],
      "name": "toString",
      "outputs": [
        {
          "internalType": "string",
          "name": "",
          "type": "string"
        }
      ],
      "stateMutability": "pure",
      "type": "function"
    },
    {
      "inputs": [
        {
          "internalType": "bytes32",
          "name": "value",
          "type": "bytes32"
        }
      ],
      "name": "toString",
      "outputs": [
        {
          "internalType": "string",
          "name": "",
          "type": "string"
        }
      ],
      "stateMutability": "pure",
      "type": "function"
    },
    {
      "inputs": [
        {
          "internalType": "uint256",
          "name": "_tokenId",
          "type": "uint256"
        }
      ],
      "name": "useTicket",
      "outputs": [],
      "stateMutability": "nonpayable",
      "type": "function"
    },
    {
      "inputs": [
        {
          "internalType": "string",
          "name": "messageSenderHex",
          "type": "string"
        }
      ],
      "name": "wrapMessageSenderInJson",
      "outputs": [
        {
          "internalType": "bytes",
          "name": "",
          "type": "bytes"
        }
      ],
      "stateMutability": "pure",
      "type": "function"
    }
  ],
  "bytecode": "0x60806040523480156200001157600080fd5b50604051620020b2380380620020b28339810160408190526200003491620000a9565b600080546001600160a01b0319166001600160a01b0383161790556040805160808101909152604f80825262002063602083013960019062000077908262000180565b506040518060800160405280604f815260200162002014604f9139600290620000a1908262000180565b50506200024c565b600060208284031215620000bc57600080fd5b81516001600160a01b0381168114620000d457600080fd5b9392505050565b634e487b7160e01b600052604160045260246000fd5b600181811c908216806200010657607f821691505b6020821081036200012757634e487b7160e01b600052602260045260246000fd5b50919050565b601f8211156200017b57600081815260208120601f850160051c81016020861015620001565750805b601f850160051c820191505b81811015620001775782815560010162000162565b5050505b505050565b81516001600160401b038111156200019c576200019c620000db565b620001b481620001ad8454620000f1565b846200012d565b602080601f831160018114620001ec5760008415620001d35750858301515b600019600386901b1c1916600185901b17855562000177565b600085815260208120601f198616915b828110156200021d57888601518255948401946001909101908401620001fc565b50858210156200023c5787850151600019600388901b60f8161c191681555b5050505050600190811b01905550565b611db8806200025c6000396000f3fe608060405234801561001057600080fd5b50600436106100f55760003560e01c806371aad10d11610097578063b11a19e811610066578063b11a19e814610190578063e23d0ed2146101fc578063f0b0be9d1461020f578063f534cf8c1461022257600080fd5b806371aad10d146101a3578063768b5fd5146101b65780637de1e536146101c9578063801d33f3146101f457600080fd5b806356ca623e116100d357806356ca623e1461015757806364eb548b1461016a578063671876981461017d5780636900a3ae1461019057600080fd5b806324d7806c146100fa5780632660644814610122578063551847b514610137575b600080fd5b61010d610108366004611514565b61022a565b60405190151581526020015b60405180910390f35b610135610130366004611538565b6102cf565b005b61014a610145366004611627565b61047a565b60405161011991906116c8565b61014a610165366004611514565b6104a3565b610135610178366004611627565b6104dc565b61013561018b3660046116ff565b610530565b61014a61019e366004611538565b610962565b61014a6101b1366004611627565b61097a565b6101356101c4366004611514565b610c20565b6000546101dc906001600160a01b031681565b6040516001600160a01b039091168152602001610119565b61014a610c9e565b61013561020a3660046117c3565b610d2c565b61013561021d366004611627565b611099565b61014a6110e9565b600080546040805180820182526001600160a01b0385811682526020820185905291517f3e75a9050000000000000000000000000000000000000000000000000000000081529190921691633e75a9059161028891906004016117ef565b602060405180830381865afa1580156102a5573d6000803e3d6000fd5b505050506040513d601f19601f820116820180604052508101906102c9919061180f565b92915050565b6000546040517f6352211e0000000000000000000000000000000000000000000000000000000081526004810183905233916001600160a01b031690636352211e90602401602060405180830381865afa158015610331573d6000803e3d6000fd5b505050506040513d601f19601f820116820180604052508101906103559190611831565b6001600160a01b0316146103b05760405162461bcd60e51b815260206004820152601b60248201527f4e6f7420746865206f776e6572206f6620746865207469636b6574000000000060448201526064015b60405180910390fd5b6103b9816110f6565b60006103c3611247565b6000546040517f14ed3a6e0000000000000000000000000000000000000000000000000000000081529192506001600160a01b0316906314ed3a6e9061040f90859085906004016118c9565b600060405180830381600087803b15801561042957600080fd5b505af115801561043d573d6000803e3d6000fd5b50506040518481523392507f108a46e5e0e67b88292a0674cb6edf9da3b41ad04c8cd52a738ff591ce32443a915060200160405180910390a25050565b60608160405160200161048d91906118e2565b6040516020818303038152906040529050919050565b604051606082811b6bffffffffffffffffffffffff19166020830152906102c9906034015b60405160208183030381529060405261097a565b6104e53361022a565b6105205760405162461bcd60e51b815260206004820152600c60248201526b2737ba1030b71030b236b4b760a11b60448201526064016103a7565b600161052c82826119d6565b5050565b6105393361022a565b6105745760405162461bcd60e51b815260206004820152600c60248201526b2737ba1030b71030b236b4b760a11b60448201526064016103a7565b600081116105c45760405162461bcd60e51b815260206004820152601c60248201527f436f756e74206d7573742062652067726561746572207468616e20300000000060448201526064016103a7565b60008251116106155760405162461bcd60e51b815260206004820152601e60248201527f41646472657373206c697374206d757374206e6f7420626520656d707479000060448201526064016103a7565b60008251826106249190611aac565b67ffffffffffffffff81111561063c5761063c611551565b60405190808252806020026020018201604052801561069257816020015b6040805160808101825260009181018281526060808301939093528152602081019190915281526020019060019003908161065a5790505b5090506000805b845181101561084c5760008582815181106106b6576106b6611ac3565b6020026020010151905060005b8581101561083757604080516001808252818301909252600091816020015b60408051808201909152606080825260208201528152602001906001900390816106e2579050509050604051806040016040528060405180604001604052806003815260200162692e6960e81b8152508152602001600180546107449061194e565b80601f01602080910402602001604051908101604052809291908181526020018280546107709061194e565b80156107bd5780601f10610792576101008083540402835291602001916107bd565b820191906000526020600020905b8154815290600101906020018083116107a057829003601f168201915b5050505050815250816000815181106107d8576107d8611ac3565b602002602001018190525060405180604001604052808481526020018281525086868151811061080a5761080a611ac3565b6020026020010181905250848061082090611ad9565b95505050808061082f90611ad9565b9150506106c3565b5050808061084490611ad9565b915050610699565b50600054604051632ad09ec360e21b81526001600160a01b039091169063ab427b0c9061087d908590600401611af2565b6020604051808303816000875af115801561089c573d6000803e3d6000fd5b505050506040513d601f19601f820116820180604052508101906108c0919061180f565b5060005b845181101561095b578481815181106108df576108df611ac3565b602002602001015160405161090f919081516001600160a01b031681526020918201519181019190915260400190565b604051908190038120858252907fc0de62aa14aeba1070ca8ae9f1180ae68a6bf4039e02058b8d413a03fff609bd9060200160405180910390a28061095381611ad9565b9150506108c4565b5050505050565b60606102c9826040516020016104c891815260200190565b60408051808201909152601081527f303132333435363738396162636465660000000000000000000000000000000060208201528151606091906000906109c2906002611aac565b6109cd906002611b7e565b67ffffffffffffffff8111156109e5576109e5611551565b6040519080825280601f01601f191660200182016040528015610a0f576020820181803683370190505b5090507f300000000000000000000000000000000000000000000000000000000000000081600081518110610a4657610a46611ac3565b60200101906001600160f81b031916908160001a9053507f780000000000000000000000000000000000000000000000000000000000000081600181518110610a9157610a91611ac3565b60200101906001600160f81b031916908160001a90535060005b8451811015610c1857826004868381518110610ac957610ac9611ac3565b016020015182517fff0000000000000000000000000000000000000000000000000000000000000090911690911c60f81c908110610b0957610b09611ac3565b01602001517fff000000000000000000000000000000000000000000000000000000000000001682610b3c836002611aac565b610b47906002611b7e565b81518110610b5757610b57611ac3565b60200101906001600160f81b031916908160001a90535082858281518110610b8157610b81611ac3565b602091010151815160f89190911c600f16908110610ba157610ba1611ac3565b01602001517fff000000000000000000000000000000000000000000000000000000000000001682610bd4836002611aac565b610bdf906003611b7e565b81518110610bef57610bef611ac3565b60200101906001600160f81b031916908160001a90535080610c1081611ad9565b915050610aab565b509392505050565b610c293361022a565b610c645760405162461bcd60e51b815260206004820152600c60248201526b2737ba1030b71030b236b4b760a11b60448201526064016103a7565b600080547fffffffffffffffffffffffff0000000000000000000000000000000000000000166001600160a01b0392909216919091179055565b60028054610cab9061194e565b80601f0160208091040260200160405190810160405280929190818152602001828054610cd79061194e565b8015610d245780601f10610cf957610100808354040283529160200191610d24565b820191906000526020600020905b815481529060010190602001808311610d0757829003601f168201915b505050505081565b610d353361022a565b610d705760405162461bcd60e51b815260206004820152600c60248201526b2737ba1030b71030b236b4b760a11b60448201526064016103a7565b60008111610dc05760405162461bcd60e51b815260206004820152601c60248201527f436f756e74206d7573742062652067726561746572207468616e20300000000060448201526064016103a7565b604080518082019091526001600160a01b03831681526000602082018190528267ffffffffffffffff811115610df857610df8611551565b604051908082528060200260200182016040528015610e4e57816020015b60408051608081018252600091810182815260608083019390935281526020810191909152815260200190600190039081610e165790505b50905060005b83811015610fba57604080516001808252818301909252600091816020015b6040805180820190915260608082526020820152815260200190600190039081610e73579050509050604051806040016040528060405180604001604052806003815260200162692e6960e81b815250815260200160018054610ed59061194e565b80601f0160208091040260200160405190810160405280929190818152602001828054610f019061194e565b8015610f4e5780601f10610f2357610100808354040283529160200191610f4e565b820191906000526020600020905b815481529060010190602001808311610f3157829003601f168201915b505050505081525081600081518110610f6957610f69611ac3565b6020026020010181905250604051806040016040528085815260200182815250838381518110610f9b57610f9b611ac3565b6020026020010181905250508080610fb290611ad9565b915050610e54565b50600054604051632ad09ec360e21b81526001600160a01b039091169063ab427b0c90610feb908490600401611af2565b6020604051808303816000875af115801561100a573d6000803e3d6000fd5b505050506040513d601f19601f8201168201806040525081019061102e919061180f565b506040805180820182526001600160a01b03861680825260006020928301908152835191825251818301528251908190038301812086825292517fc0de62aa14aeba1070ca8ae9f1180ae68a6bf4039e02058b8d413a03fff609bd929181900390910190a250505050565b6110a23361022a565b6110dd5760405162461bcd60e51b815260206004820152600c60248201526b2737ba1030b71030b236b4b760a11b60448201526064016103a7565b600261052c82826119d6565b60018054610cab9061194e565b604080516001808252818301909252600091816020015b606081526020019060019003908161110d579050509050604051806040016040528060038152602001620612e360ec1b8152508160008151811061115357611153611ac3565b6020908102919091010152600080546040517fe07ede7e0000000000000000000000000000000000000000000000000000000081526001600160a01b039091169063e07ede7e906111aa9086908690600401611b91565b600060405180830381865afa1580156111c7573d6000803e3d6000fd5b505050506040513d6000823e601f3d908101601f191682016040526111ef9190810190611c2b565b905080516000146112425760405162461bcd60e51b815260206004820152601360248201527f5469636b657420616c726561647920757365640000000000000000000000000060448201526064016103a7565b505050565b60606000611254336104a3565b905060006112618261047a565b60408051600480825260a0820190925291925060009190816020015b604080518082019091526060808252602082015281526020019060019003908161127d57905050604080516080810182526003818301908152620612e360ec1b606083015281529051919250906020808301916112fe91017f7b225f223a20225449434b45542055534544227d000000000000000000000000815260140190565b6040516020818303038152906040528152508160008151811061132357611323611ac3565b602002602001018190525060405180604001604052806040518060400160405280600381526020017f612e3100000000000000000000000000000000000000000000000000000000008152508152602001838152508160018151811061138b5761138b611ac3565b602002602001018190525060405180604001604052806040518060400160405280601c81526020017f706c617965725f6574685f616464726573735f6f725f6d6972726f72000000008152508152602001846040516020016113ed9190611d66565b6040516020818303038152906040528152508160028151811061141257611412611ac3565b6020026020010181905250604051806040016040528060405180604001604052806003815260200162692e6960e81b8152508152602001600280546114569061194e565b80601f01602080910402602001604051908101604052809291908181526020018280546114829061194e565b80156114cf5780601f106114a4576101008083540402835291602001916114cf565b820191906000526020600020905b8154815290600101906020018083116114b257829003601f168201915b5050505050815250816003815181106114ea576114ea611ac3565b60209081029190910101529392505050565b6001600160a01b038116811461151157600080fd5b50565b60006020828403121561152657600080fd5b8135611531816114fc565b9392505050565b60006020828403121561154a57600080fd5b5035919050565b634e487b7160e01b600052604160045260246000fd5b6040805190810167ffffffffffffffff8111828210171561158a5761158a611551565b60405290565b604051601f8201601f1916810167ffffffffffffffff811182821017156115b9576115b9611551565b604052919050565b600067ffffffffffffffff8211156115db576115db611551565b50601f01601f191660200190565b60006115fc6115f7846115c1565b611590565b905082815283838301111561161057600080fd5b828260208301376000602084830101529392505050565b60006020828403121561163957600080fd5b813567ffffffffffffffff81111561165057600080fd5b8201601f8101841361166157600080fd5b611670848235602084016115e9565b949350505050565b60005b8381101561169357818101518382015260200161167b565b50506000910152565b600081518084526116b4816020860160208601611678565b601f01601f19169290920160200192915050565b602081526000611531602083018461169c565b600067ffffffffffffffff8211156116f5576116f5611551565b5060051b60200190565b600080604080848603121561171357600080fd5b833567ffffffffffffffff81111561172a57600080fd5b8401601f8101861361173b57600080fd5b8035602061174b6115f7836116db565b82815260069290921b8301810191818101908984111561176a57600080fd5b938201935b838510156117b35785858b0312156117875760008081fd5b61178f611567565b853561179a816114fc565b815285840135848201528252938501939082019061176f565b9997909101359750505050505050565b600080604083850312156117d657600080fd5b82356117e1816114fc565b946020939093013593505050565b81516001600160a01b0316815260208083015190820152604081016102c9565b60006020828403121561182157600080fd5b8151801515811461153157600080fd5b60006020828403121561184357600080fd5b8151611531816114fc565b600081518084526020808501808196508360051b8101915082860160005b858110156118bc57828403895281516040815181875261188e8288018261169c565b915050868201519150858103878701526118a8818361169c565b9a87019a955050509084019060010161186c565b5091979650505050505050565b828152604060208201526000611670604083018461184e565b7f7b225f223a20220000000000000000000000000000000000000000000000000081526000825161191a816007850160208701611678565b7f227d0000000000000000000000000000000000000000000000000000000000006007939091019283015250600901919050565b600181811c9082168061196257607f821691505b60208210810361198257634e487b7160e01b600052602260045260246000fd5b50919050565b601f82111561124257600081815260208120601f850160051c810160208610156119af5750805b601f850160051c820191505b818110156119ce578281556001016119bb565b505050505050565b815167ffffffffffffffff8111156119f0576119f0611551565b611a04816119fe845461194e565b84611988565b602080601f831160018114611a395760008415611a215750858301515b600019600386901b1c1916600185901b1785556119ce565b600085815260208120601f198616915b82811015611a6857888601518255948401946001909101908401611a49565b5085821015611a865787850151600019600388901b60f8161c191681555b5050505050600190811b01905550565b634e487b7160e01b600052601160045260246000fd5b80820281158282048414176102c9576102c9611a96565b634e487b7160e01b600052603260045260246000fd5b600060018201611aeb57611aeb611a96565b5060010190565b60006020808301818452808551808352604092508286019150828160051b87010184880160005b83811015611b7057603f198984030185528151805180516001600160a01b03168552602090810151908501528701516060878501819052611b5c8186018361184e565b968901969450505090860190600101611b19565b509098975050505050505050565b808201808211156102c9576102c9611a96565b600060408201848352602060408185015281855180845260608601915060608160051b870101935082870160005b82811015611bed57605f19888703018452611bdb86835161169c565b95509284019290840190600101611bbf565b509398975050505050505050565b6000611c096115f7846115c1565b9050828152838383011115611c1d57600080fd5b611531836020830184611678565b60006020808385031215611c3e57600080fd5b825167ffffffffffffffff80821115611c5657600080fd5b818501915085601f830112611c6a57600080fd5b8151611c786115f7826116db565b81815260059190911b83018401908481019088831115611c9757600080fd5b8585015b83811015611d5957805185811115611cb35760008081fd5b86016040818c03601f1901811315611ccb5760008081fd5b611cd3611567565b8983015188811115611ce55760008081fd5b8301603f8082018f13611cf85760008081fd5b611d088f8d840151868501611bfb565b835283850151915089821115611d1e5760008081fd5b81850194508e81860112611d3457600091508182fd5b5050611d468d8b850151848601611bfb565b818b015285525050918601918601611c9b565b5098975050505050505050565b60008251611d78818460208701611678565b919091019291505056fea2646970667358221220a777336602832390e621033c078b1a5ce5def2ac3d8601a3278f0a34576a786964736f6c6343000813003368747470733a2f2f697066732e756e697175652e6e6574776f726b2f697066732f516d52697667575772506a4c5456424b4b356a6a43443635574d4761686d764e685862685173424b42673578717668747470733a2f2f697066732e756e697175652e6e6574776f726b2f697066732f516d65376e745178697550366d4b78395932437379586b69637671694d4e324855503955774d74375465616d5642",
  "linkReferences": {},
  "deployedLinkReferences": {}
}