{
  "_format": "hh-sol-artifact-1",
  "contractName": "FHFTickets",
  "sourceName": "contracts/FHFTickets.sol",
  "abi": [
    {
      "inputs": [
        {
          "internalType": "address",
          "name": "_collection",
          "type": "address"
        }
      ],
      "stateMutability": "nonpayable",
      "type": "constructor"
    },
    {
      "anonymous": false,
      "inputs": [
        {
          "indexed": true,
          "internalType": "address",
          "name": "by",
          "type": "address"
        },
        {
          "indexed": false,
          "internalType": "uint256",
          "name": "tokenId",
          "type": "uint256"
        }
      ],
      "name": "TicketUsed",
      "type": "event"
    },
    {
      "anonymous": false,
      "inputs": [
        {
          "components": [
            {
              "internalType": "address",
              "name": "eth",
              "type": "address"
            },
            {
              "internalType": "uint256",
              "name": "sub",
              "type": "uint256"
            }
          ],
          "indexed": true,
          "internalType": "struct CrossAddress",
          "name": "to",
          "type": "tuple"
        },
        {
          "indexed": false,
          "internalType": "uint256",
          "name": "count",
          "type": "uint256"
        }
      ],
      "name": "TicketsDropped",
      "type": "event"
    },
    {
      "inputs": [],
      "name": "NEW_TICKET_IMAGE_URL",
      "outputs": [
        {
          "internalType": "bytes",
          "name": "",
          "type": "bytes"
        }
      ],
      "stateMutability": "view",
      "type": "function"
    },
    {
      "inputs": [],
      "name": "USED_TICKET_IMAGE_URL",
      "outputs": [
        {
          "internalType": "bytes",
          "name": "",
          "type": "bytes"
        }
      ],
      "stateMutability": "view",
      "type": "function"
    },
    {
      "inputs": [],
      "name": "collection",
      "outputs": [
        {
          "internalType": "address",
          "name": "",
          "type": "address"
        }
      ],
      "stateMutability": "view",
      "type": "function"
    },
    {
      "inputs": [
        {
          "internalType": "address",
          "name": "_to",
          "type": "address"
        },
        {
          "internalType": "uint256",
          "name": "_count",
          "type": "uint256"
        }
      ],
      "name": "dropTickets",
      "outputs": [],
      "stateMutability": "nonpayable",
      "type": "function"
    },
    {
      "inputs": [
        {
          "components": [
            {
              "internalType": "address",
              "name": "eth",
              "type": "address"
            },
            {
              "internalType": "uint256",
              "name": "sub",
              "type": "uint256"
            }
          ],
          "internalType": "struct CrossAddress[]",
          "name": "_to",
          "type": "tuple[]"
        },
        {
          "internalType": "uint256",
          "name": "_count",
          "type": "uint256"
        }
      ],
      "name": "dropTicketsBatchCross",
      "outputs": [],
      "stateMutability": "nonpayable",
      "type": "function"
    },
    {
      "inputs": [
        {
          "internalType": "address",
          "name": "_address",
          "type": "address"
        }
      ],
      "name": "isAdmin",
      "outputs": [
        {
          "internalType": "bool",
          "name": "",
          "type": "bool"
        }
      ],
      "stateMutability": "view",
      "type": "function"
    },
    {
      "inputs": [
        {
          "internalType": "uint256",
          "name": "_tokenId",
          "type": "uint256"
        }
      ],
      "name": "useTicket",
      "outputs": [],
      "stateMutability": "nonpayable",
      "type": "function"
    },
    {
      "inputs": [
        {
          "internalType": "uint256",
          "name": "_tokenId",
          "type": "uint256"
        },
        {
          "components": [
            {
              "internalType": "address",
              "name": "eth",
              "type": "address"
            },
            {
              "internalType": "uint256",
              "name": "sub",
              "type": "uint256"
            }
          ],
          "internalType": "struct CrossAddress",
          "name": "_owner",
          "type": "tuple"
        }
      ],
      "name": "useTicketCross",
      "outputs": [],
      "stateMutability": "nonpayable",
      "type": "function"
    },
    {
      "inputs": [
        {
          "internalType": "uint256",
          "name": "_tokenId",
          "type": "uint256"
        },
        {
          "internalType": "uint256",
          "name": "substrateAddress",
          "type": "uint256"
        }
      ],
      "name": "useTicketSubstrate",
      "outputs": [],
      "stateMutability": "nonpayable",
      "type": "function"
    },
    {
      "inputs": [
        {
          "components": [
            {
              "internalType": "address",
              "name": "eth",
              "type": "address"
            },
            {
              "internalType": "uint256",
              "name": "sub",
              "type": "uint256"
            }
          ],
          "internalType": "struct CrossAddress",
          "name": "_crossAddress",
          "type": "tuple"
        }
      ],
      "name": "wrapCrossAddressInJson",
      "outputs": [
        {
          "internalType": "bytes",
          "name": "",
          "type": "bytes"
        }
      ],
      "stateMutability": "pure",
      "type": "function"
    },
    {
      "inputs": [
        {
          "internalType": "uint256",
          "name": "_value",
          "type": "uint256"
        },
        {
          "internalType": "uint256",
          "name": "_bytesSize",
          "type": "uint256"
        }
      ],
      "name": "wrapNumberInJson",
      "outputs": [
        {
          "internalType": "bytes",
          "name": "",
          "type": "bytes"
        }
      ],
      "stateMutability": "pure",
      "type": "function"
    }
  ],
  "bytecode": "0x608060405234801561001057600080fd5b5060405161200638038061200683398101604081905261002f91610054565b600080546001600160a01b0319166001600160a01b0392909216919091179055610084565b60006020828403121561006657600080fd5b81516001600160a01b038116811461007d57600080fd5b9392505050565b611f73806100936000396000f3fe608060405234801561001057600080fd5b50600436106100c95760003560e01c8063726273e511610081578063e23d0ed21161005b578063e23d0ed214610197578063f390d83a146101aa578063f534cf8c146101bd57600080fd5b8063726273e5146101515780637de1e53614610164578063801d33f31461018f57600080fd5b806346148ba1116100b257806346148ba11461010b5780635f9de84d1461012b578063671876981461013e57600080fd5b806324d7806c146100ce57806326606448146100f6575b600080fd5b6100e16100dc366004611750565b6101c5565b60405190151581526020015b60405180910390f35b610109610104366004611774565b61026a565b005b61011e610119366004611838565b610402565b6040516100ed91906118a4565b6101096101393660046118b7565b610435565b61010961014c3660046118fd565b610615565b61011e61015f3660046118b7565b6109d5565b600054610177906001600160a01b031681565b6040516001600160a01b0390911681526020016100ed565b61011e610a0e565b6101096101a53660046119a3565b610a2a565b6101096101b83660046119cf565b610d1c565b61011e610f2d565b600080546040805180820182526001600160a01b0385811682526020820185905291517f3e75a9050000000000000000000000000000000000000000000000000000000081529190921691633e75a9059161022391906004016119fc565b602060405180830381865afa158015610240573d6000803e3d6000fd5b505050506040513d601f19601f820116820180604052508101906102649190611a1c565b92915050565b6000546040516331a9108f60e11b81526004810183905233916001600160a01b031690636352211e90602401602060405180830381865afa1580156102b3573d6000803e3d6000fd5b505050506040513d601f19601f820116820180604052508101906102d79190611a3e565b6001600160a01b0316146103325760405162461bcd60e51b815260206004820152601b60248201527f4e6f7420746865206f776e6572206f6620746865207469636b6574000000000060448201526064015b60405180910390fd5b61033b81610f49565b60006103646040518060400160405280336001600160a01b03168152602001600081525061109a565b600054604051630a769d3760e11b81529192506001600160a01b0316906314ed3a6e906103979085908590600401611ad6565b600060405180830381600087803b1580156103b157600080fd5b505af11580156103c5573d6000803e3d6000fd5b50506040518481523392507f108a46e5e0e67b88292a0674cb6edf9da3b41ad04c8cd52a738ff591ce32443a915060200160405180910390a25050565b6060816020015160001461041f57610264826020015160206109d5565b8151610264906001600160a01b031660146109d5565b61043e81611374565b600080546040517fcaa3a4d0000000000000000000000000000000000000000000000000000000008152600481018590526001600160a01b039091169063caa3a4d0906024016040805180830381865afa1580156104a0573d6000803e3d6000fd5b505050506040513d601f19601f820116820180604052508101906104c49190611af7565b90508181602001511461053f5760405162461bcd60e51b815260206004820152602f60248201527f537562737472617465206164647265737320646f6573206e6f74206d6174636860448201527f207469636b65742773206f776e657200000000000000000000000000000000006064820152608401610329565b61054883610f49565b6000610574604051806040016040528084600001516001600160a01b031681526020018581525061109a565b600054604051630a769d3760e11b81529192506001600160a01b0316906314ed3a6e906105a79087908590600401611ad6565b600060405180830381600087803b1580156105c157600080fd5b505af11580156105d5573d6000803e3d6000fd5b50506040518681523392507f108a46e5e0e67b88292a0674cb6edf9da3b41ad04c8cd52a738ff591ce32443a91506020015b60405180910390a250505050565b61061e336101c5565b6106595760405162461bcd60e51b815260206004820152600c60248201526b2737ba1030b71030b236b4b760a11b6044820152606401610329565b600081116106a95760405162461bcd60e51b815260206004820152601c60248201527f436f756e74206d7573742062652067726561746572207468616e2030000000006044820152606401610329565b60008251116106fa5760405162461bcd60e51b815260206004820152601e60248201527f41646472657373206c697374206d757374206e6f7420626520656d70747900006044820152606401610329565b60008251826107099190611b47565b67ffffffffffffffff8111156107215761072161178d565b60405190808252806020026020018201604052801561077757816020015b6040805160808101825260009181018281526060808301939093528152602081019190915281526020019060019003908161073f5790505b5090506000805b84518110156108bf57600085828151811061079b5761079b611b5e565b6020026020010151905060005b858110156108aa57604080516001808252818301909252600091816020015b60408051808201909152606080825260208201528152602001906001900390816107c7579050509050604051806040016040528060405180604001604052806003815260200162692e6960e81b81525081526020016040518060800160405280604f8152602001611eef604f91398152508160008151811061084b5761084b611b5e565b602002602001018190525060405180604001604052808481526020018281525086868151811061087d5761087d611b5e565b6020026020010181905250848061089390611b74565b9550505080806108a290611b74565b9150506107a8565b505080806108b790611b74565b91505061077e565b50600054604051632ad09ec360e21b81526001600160a01b039091169063ab427b0c906108f0908590600401611b8d565b6020604051808303816000875af115801561090f573d6000803e3d6000fd5b505050506040513d601f19601f820116820180604052508101906109339190611a1c565b5060005b84518110156109ce5784818151811061095257610952611b5e565b6020026020010151604051610982919081516001600160a01b031681526020918201519181019190915260400190565b604051908190038120858252907fc0de62aa14aeba1070ca8ae9f1180ae68a6bf4039e02058b8d413a03fff609bd9060200160405180910390a2806109c681611b74565b915050610937565b5050505050565b606060006109e384846114ed565b9050806040516020016109f69190611c19565b60405160208183030381529060405291505092915050565b6040518060800160405280604f8152602001611ea0604f913981565b610a33336101c5565b610a6e5760405162461bcd60e51b815260206004820152600c60248201526b2737ba1030b71030b236b4b760a11b6044820152606401610329565b60008111610abe5760405162461bcd60e51b815260206004820152601c60248201527f436f756e74206d7573742062652067726561746572207468616e2030000000006044820152606401610329565b604080518082019091526001600160a01b03831681526000602082018190528267ffffffffffffffff811115610af657610af661178d565b604051908082528060200260200182016040528015610b4c57816020015b60408051608081018252600091810182815260608083019390935281526020810191909152815260200190600190039081610b145790505b50905060005b83811015610c4657604080516001808252818301909252600091816020015b6040805180820190915260608082526020820152815260200190600190039081610b71579050509050604051806040016040528060405180604001604052806003815260200162692e6960e81b81525081526020016040518060800160405280604f8152602001611eef604f913981525081600081518110610bf557610bf5611b5e565b6020026020010181905250604051806040016040528085815260200182815250838381518110610c2757610c27611b5e565b6020026020010181905250508080610c3e90611b74565b915050610b52565b50600054604051632ad09ec360e21b81526001600160a01b039091169063ab427b0c90610c77908490600401611b8d565b6020604051808303816000875af1158015610c96573d6000803e3d6000fd5b505050506040513d601f19601f82011682018060405250810190610cba9190611a1c565b506040805180820182526001600160a01b03861680825260006020928301908152835191825251818301528251908190039092018220858352917fc0de62aa14aeba1070ca8ae9f1180ae68a6bf4039e02058b8d413a03fff609bd9101610607565b610d2582610f49565b602081015115610d4157610d3c8160200151611374565b610dc0565b80516001600160a01b03163314610dc05760405162461bcd60e51b815260206004820152602a60248201527f4f776e6572206973206e6f74207468652073656e646572206f6620746865207460448201527f72616e73616374696f6e000000000000000000000000000000000000000000006064820152608401610329565b6000546040516331a9108f60e11b81526004810184905233916001600160a01b031690636352211e90602401602060405180830381865afa158015610e09573d6000803e3d6000fd5b505050506040513d601f19601f82011682018060405250810190610e2d9190611a3e565b6001600160a01b031614610e835760405162461bcd60e51b815260206004820152601b60248201527f4e6f7420746865206f776e6572206f6620746865207469636b657400000000006044820152606401610329565b6000610e8e8261109a565b600054604051630a769d3760e11b81529192506001600160a01b0316906314ed3a6e90610ec19086908590600401611ad6565b600060405180830381600087803b158015610edb57600080fd5b505af1158015610eef573d6000803e3d6000fd5b50506040518581523392507f108a46e5e0e67b88292a0674cb6edf9da3b41ad04c8cd52a738ff591ce32443a915060200160405180910390a2505050565b6040518060800160405280604f8152602001611eef604f913981565b604080516001808252818301909252600091816020015b6060815260200190600190039081610f60579050509050604051806040016040528060038152602001620612e360ec1b81525081600081518110610fa657610fa6611b5e565b6020908102919091010152600080546040517fe07ede7e0000000000000000000000000000000000000000000000000000000081526001600160a01b039091169063e07ede7e90610ffd9086908690600401611c85565b600060405180830381865afa15801561101a573d6000803e3d6000fd5b505050506040513d6000823e601f3d908101601f191682016040526110429190810190611d3e565b905080516000146110955760405162461bcd60e51b815260206004820152601360248201527f5469636b657420616c72656164792075736564000000000000000000000000006044820152606401610329565b505050565b60408051600480825260a0820190925260609160009190816020015b60408051808201909152606080825260208201528152602001906001900390816110b657905050604080516080810182526003818301908152620612e360ec1b6060830152815290519192509060208083019161113791017f7b225f223a20225449434b45542055534544227d000000000000000000000000815260140190565b6040516020818303038152906040528152508160008151811061115c5761115c611b5e565b602002602001018190525060405180604001604052806040518060400160405280600381526020017f612e31000000000000000000000000000000000000000000000000000000000081525081526020016111b685610402565b815250816001815181106111cc576111cc611b5e565b6020026020010181905250826020015160001461126e576040805160808101825260118183019081527f706c617965725f7075626c69635f6b6579000000000000000000000000000000606083015281526020858101519251919281840192611239920190815260200190565b6040516020818303038152906040528152508160028151811061125e5761125e611b5e565b6020026020010181905250611308565b6040805160808101825260118183019081527f706c617965725f7075626c69635f6b6579000000000000000000000000000000606083015281528451915190916020808401926112d792910160609190911b6bffffffffffffffffffffffff1916815260140190565b604051602081830303815290604052815250816002815181106112fc576112fc611b5e565b60200260200101819052505b604051806040016040528060405180604001604052806003815260200162692e6960e81b81525081526020016040518060800160405280604f8152602001611ea0604f91398152508160038151811061136357611363611b5e565b602090810291909101015292915050565b60008160405160200161138991815260200190565b60405160208183030381529060405290506014815110156113ec5760405162461bcd60e51b815260206004820152601b60248201527f537562737472617465206164647265737320746f6f2073686f727400000000006044820152606401610329565b6000805b601481101561145657611404816008611b47565b83828151811061141657611416611b5e565b01602001517fff0000000000000000000000000000000000000000000000000000000000000016901c91909117908061144e81611b74565b9150506113f0565b503360601b6bffffffffffffffffffffffff1916816bffffffffffffffffffffffff1916146110955760405162461bcd60e51b815260206004820152603b60248201527f537562737472617465206164647265737320646f6573206e6f74206d6174636860448201527f207472616e73616374696f6e2073656e646572206164647265737300000000006064820152608401610329565b606060208211156115405760405162461bcd60e51b815260206004820152600e60248201527f53697a6520746f6f206c617267650000000000000000000000000000000000006044820152606401610329565b60408051808201909152601081527f303132333435363738396162636465660000000000000000000000000000000060208201526000611581846002611b47565b61158c906002611e79565b67ffffffffffffffff8111156115a4576115a461178d565b6040519080825280601f01601f1916602001820160405280156115ce576020820181803683370190505b5090507f30000000000000000000000000000000000000000000000000000000000000008160008151811061160557611605611b5e565b60200101906001600160f81b031916908160001a9053507f78000000000000000000000000000000000000000000000000000000000000008160018151811061165057611650611b5e565b60200101906001600160f81b031916908160001a90535060005b611675856002611b47565b81101561172f578281600161168b886002611b47565b6116959190611e8c565b61169f9190611e8c565b6116aa906008611b47565b87901c600f1660ff16815181106116c3576116c3611b5e565b01602001517fff0000000000000000000000000000000000000000000000000000000000000016826116f6836002611e79565b8151811061170657611706611b5e565b60200101906001600160f81b031916908160001a9053508061172781611b74565b91505061166a565b50949350505050565b6001600160a01b038116811461174d57600080fd5b50565b60006020828403121561176257600080fd5b813561176d81611738565b9392505050565b60006020828403121561178657600080fd5b5035919050565b634e487b7160e01b600052604160045260246000fd5b6040805190810167ffffffffffffffff811182821017156117c6576117c661178d565b60405290565b604051601f8201601f1916810167ffffffffffffffff811182821017156117f5576117f561178d565b604052919050565b60006040828403121561180f57600080fd5b6118176117a3565b9050813561182481611738565b808252506020820135602082015292915050565b60006040828403121561184a57600080fd5b61176d83836117fd565b60005b8381101561186f578181015183820152602001611857565b50506000910152565b60008151808452611890816020860160208601611854565b601f01601f19169290920160200192915050565b60208152600061176d6020830184611878565b600080604083850312156118ca57600080fd5b50508035926020909101359150565b600067ffffffffffffffff8211156118f3576118f361178d565b5060051b60200190565b600080604080848603121561191157600080fd5b833567ffffffffffffffff81111561192857600080fd5b8401601f8101861361193957600080fd5b8035602061194e611949836118d9565b6117cc565b82815260069290921b8301810191818101908984111561196d57600080fd5b938201935b83851015611993576119848a866117fd565b82529385019390820190611972565b9997909101359750505050505050565b600080604083850312156119b657600080fd5b82356119c181611738565b946020939093013593505050565b600080606083850312156119e257600080fd5b823591506119f384602085016117fd565b90509250929050565b81516001600160a01b031681526020808301519082015260408101610264565b600060208284031215611a2e57600080fd5b8151801515811461176d57600080fd5b600060208284031215611a5057600080fd5b815161176d81611738565b600081518084526020808501808196508360051b8101915082860160005b85811015611ac9578284038952815160408151818752611a9b82880182611878565b91505086820151915085810387870152611ab58183611878565b9a87019a9550505090840190600101611a79565b5091979650505050505050565b828152604060208201526000611aef6040830184611a5b565b949350505050565b600060408284031215611b0957600080fd5b611b116117a3565b8251611b1c81611738565b81526020928301519281019290925250919050565b634e487b7160e01b600052601160045260246000fd5b808202811582820484141761026457610264611b31565b634e487b7160e01b600052603260045260246000fd5b600060018201611b8657611b86611b31565b5060010190565b60006020808301818452808551808352604092508286019150828160051b87010184880160005b83811015611c0b57603f198984030185528151805180516001600160a01b03168552602090810151908501528701516060878501819052611bf781860183611a5b565b968901969450505090860190600101611bb4565b509098975050505050505050565b7f7b225f223a202200000000000000000000000000000000000000000000000000815260008251611c51816007850160208701611854565b7f227d0000000000000000000000000000000000000000000000000000000000006007939091019283015250600901919050565b600060408201848352602060408185015281855180845260608601915060608160051b870101935082870160005b82811015611ce157605f19888703018452611ccf868351611878565b95509284019290840190600101611cb3565b509398975050505050505050565b600067ffffffffffffffff831115611d0957611d0961178d565b611d1c601f8401601f19166020016117cc565b9050828152838383011115611d3057600080fd5b61176d836020830184611854565b60006020808385031215611d5157600080fd5b825167ffffffffffffffff80821115611d6957600080fd5b818501915085601f830112611d7d57600080fd5b8151611d8b611949826118d9565b81815260059190911b83018401908481019088831115611daa57600080fd5b8585015b83811015611e6c57805185811115611dc65760008081fd5b86016040818c03601f1901811315611dde5760008081fd5b611de66117a3565b8983015188811115611df85760008081fd5b8301603f8082018f13611e0b5760008081fd5b611e1b8f8d840151868501611cef565b835283850151915089821115611e315760008081fd5b81850194508e81860112611e4757600091508182fd5b5050611e598d8b850151848601611cef565b818b015285525050918601918601611dae565b5098975050505050505050565b8082018082111561026457610264611b31565b8181038181111561026457610264611b3156fe68747470733a2f2f697066732e756e697175652e6e6574776f726b2f697066732f516d52697667575772506a4c5456424b4b356a6a43443635574d4761686d764e685862685173424b42673578717668747470733a2f2f697066732e756e697175652e6e6574776f726b2f697066732f516d65376e745178697550366d4b78395932437379586b69637671694d4e324855503955774d74375465616d5642a26469706673582212204587d3f86b91f4c83bb90b8c5f088cd646e431f8b829cb6d35c21a395ad4319764736f6c63430008130033",
  "linkReferences": {},
  "deployedLinkReferences": {}
}