{
  "_format": "hh-sol-artifact-1",
  "contractName": "FHFTickets",
  "sourceName": "contracts/FHFTickets.sol",
  "abi": [
    {
      "inputs": [
        {
          "internalType": "address",
          "name": "_collection",
          "type": "address"
        }
      ],
      "stateMutability": "nonpayable",
      "type": "constructor"
    },
    {
      "anonymous": false,
      "inputs": [
        {
          "indexed": true,
          "internalType": "address",
          "name": "by",
          "type": "address"
        },
        {
          "indexed": false,
          "internalType": "uint256",
          "name": "tokenId",
          "type": "uint256"
        }
      ],
      "name": "TicketUsed",
      "type": "event"
    },
    {
      "anonymous": false,
      "inputs": [
        {
          "indexed": true,
          "internalType": "address",
          "name": "to",
          "type": "address"
        },
        {
          "indexed": false,
          "internalType": "uint256",
          "name": "count",
          "type": "uint256"
        }
      ],
      "name": "TicketsDropped",
      "type": "event"
    },
    {
      "inputs": [],
      "name": "NEW_TICKET_IMAGE_URL",
      "outputs": [
        {
          "internalType": "bytes",
          "name": "",
          "type": "bytes"
        }
      ],
      "stateMutability": "view",
      "type": "function"
    },
    {
      "inputs": [],
      "name": "USED_TICKET_IMAGE_URL",
      "outputs": [
        {
          "internalType": "bytes",
          "name": "",
          "type": "bytes"
        }
      ],
      "stateMutability": "view",
      "type": "function"
    },
    {
      "inputs": [],
      "name": "collection",
      "outputs": [
        {
          "internalType": "address",
          "name": "",
          "type": "address"
        }
      ],
      "stateMutability": "view",
      "type": "function"
    },
    {
      "inputs": [
        {
          "internalType": "address",
          "name": "_to",
          "type": "address"
        },
        {
          "internalType": "uint256",
          "name": "_count",
          "type": "uint256"
        }
      ],
      "name": "dropTickets",
      "outputs": [],
      "stateMutability": "nonpayable",
      "type": "function"
    },
    {
      "inputs": [
        {
          "internalType": "address[]",
          "name": "_to",
          "type": "address[]"
        },
        {
          "internalType": "uint256",
          "name": "_count",
          "type": "uint256"
        }
      ],
      "name": "dropTicketsBatch",
      "outputs": [],
      "stateMutability": "nonpayable",
      "type": "function"
    },
    {
      "inputs": [
        {
          "internalType": "address",
          "name": "_address",
          "type": "address"
        }
      ],
      "name": "isAdmin",
      "outputs": [
        {
          "internalType": "bool",
          "name": "",
          "type": "bool"
        }
      ],
      "stateMutability": "view",
      "type": "function"
    },
    {
      "inputs": [
        {
          "internalType": "uint256",
          "name": "_tokenId",
          "type": "uint256"
        }
      ],
      "name": "useTicket",
      "outputs": [],
      "stateMutability": "nonpayable",
      "type": "function"
    },
    {
      "inputs": [
        {
          "internalType": "uint256",
          "name": "_tokenId",
          "type": "uint256"
        },
        {
          "internalType": "uint256",
          "name": "substrateAddress",
          "type": "uint256"
        }
      ],
      "name": "useTicketSubstrate",
      "outputs": [],
      "stateMutability": "nonpayable",
      "type": "function"
    }
  ],
  "bytecode": "0x608060405234801561001057600080fd5b5060405161183638038061183683398101604081905261002f91610054565b600080546001600160a01b0319166001600160a01b0392909216919091179055610084565b60006020828403121561006657600080fd5b81516001600160a01b038116811461007d57600080fd5b9392505050565b6117a3806100936000396000f3fe608060405234801561001057600080fd5b50600436106100885760003560e01c8063801d33f31161005b578063801d33f314610108578063e2048e4c1461011d578063e23d0ed214610130578063f534cf8c1461014357600080fd5b806324d7806c1461008d57806326606448146100b55780635f9de84d146100ca5780637de1e536146100dd575b600080fd5b6100a061009b366004611097565b61014b565b60405190151581526020015b60405180910390f35b6100c86100c33660046110bb565b6101f0565b005b6100c86100d83660046110d4565b6103b2565b6000546100f0906001600160a01b031681565b6040516001600160a01b0390911681526020016100ac565b61011061057e565b6040516100ac9190611146565b6100c861012b3660046111ed565b61059a565b6100c861013e366004611292565b61092c565b610110610bf8565b600080546040805180820182526001600160a01b0385811682526020820185905291517f3e75a9050000000000000000000000000000000000000000000000000000000081529190921691633e75a905916101a991906004016112be565b602060405180830381865afa1580156101c6573d6000803e3d6000fd5b505050506040513d601f19601f820116820180604052508101906101ea91906112de565b92915050565b6000546040517f6352211e0000000000000000000000000000000000000000000000000000000081526004810183905233916001600160a01b031690636352211e90602401602060405180830381865afa158015610252573d6000803e3d6000fd5b505050506040513d601f19601f820116820180604052508101906102769190611300565b6001600160a01b0316146102d15760405162461bcd60e51b815260206004820152601b60248201527f4e6f7420746865206f776e6572206f6620746865207469636b6574000000000060448201526064015b60405180910390fd5b6102da81610c14565b6040516bffffffffffffffffffffffff193360601b166020820152600090610314906034015b604051602081830303815290604052610d65565b600054604051630a769d3760e11b81529192506001600160a01b0316906314ed3a6e906103479085908590600401611398565b600060405180830381600087803b15801561036157600080fd5b505af1158015610375573d6000803e3d6000fd5b50506040518481523392507f108a46e5e0e67b88292a0674cb6edf9da3b41ad04c8cd52a738ff591ce32443a915060200160405180910390a25050565b6103bb81610f06565b600080546040517fcaa3a4d0000000000000000000000000000000000000000000000000000000008152600481018590526001600160a01b039091169063caa3a4d0906024016040805180830381865afa15801561041d573d6000803e3d6000fd5b505050506040513d601f19601f8201168201806040525081019061044191906113b9565b9050818160200151146104bc5760405162461bcd60e51b815260206004820152602f60248201527f537562737472617465206164647265737320646f6573206e6f74206d6174636860448201527f207469636b65742773206f776e6572000000000000000000000000000000000060648201526084016102c8565b6104c583610c14565b60006104dd8360405160200161030091815260200190565b600054604051630a769d3760e11b81529192506001600160a01b0316906314ed3a6e906105109087908590600401611398565b600060405180830381600087803b15801561052a57600080fd5b505af115801561053e573d6000803e3d6000fd5b50506040518681523392507f108a46e5e0e67b88292a0674cb6edf9da3b41ad04c8cd52a738ff591ce32443a91506020015b60405180910390a250505050565b6040518060800160405280604f81526020016116d0604f913981565b6105a33361014b565b6105de5760405162461bcd60e51b815260206004820152600c60248201526b2737ba1030b71030b236b4b760a11b60448201526064016102c8565b6000811161062e5760405162461bcd60e51b815260206004820152601c60248201527f436f756e74206d7573742062652067726561746572207468616e20300000000060448201526064016102c8565b600082511161067f5760405162461bcd60e51b815260206004820152601e60248201527f41646472657373206c697374206d757374206e6f7420626520656d707479000060448201526064016102c8565b600082518261068e9190611409565b67ffffffffffffffff8111156106a6576106a6611159565b6040519080825280602002602001820160405280156106fc57816020015b604080516080810182526000918101828152606080830193909352815260208101919091528152602001906001900390816106c45790505b5090506000805b8451811015610862576000604051806040016040528087848151811061072b5761072b611420565b60200260200101516001600160a01b031681526020016000815250905060005b8581101561084d57604080516001808252818301909252600091816020015b604080518082019091526060808252602082015281526020019060019003908161076a579050509050604051806040016040528060405180604001604052806003815260200162692e7560e81b81525081526020016040518060800160405280604f815260200161171f604f9139815250816000815181106107ee576107ee611420565b602002602001018190525060405180604001604052808481526020018281525086868151811061082057610820611420565b6020026020010181905250848061083690611436565b95505050808061084590611436565b91505061074b565b5050808061085a90611436565b915050610703565b50600054604051632ad09ec360e21b81526001600160a01b039091169063ab427b0c9061089390859060040161144f565b6020604051808303816000875af11580156108b2573d6000803e3d6000fd5b505050506040513d601f19601f820116820180604052508101906108d691906112de565b50836000815181106108ea576108ea611420565b60200260200101516001600160a01b03167fea1af5ecbe3f633277a1fe187cbf01c0c04f3bc1dc2f134c3d116f8dc69534258460405161057091815260200190565b6109353361014b565b6109705760405162461bcd60e51b815260206004820152600c60248201526b2737ba1030b71030b236b4b760a11b60448201526064016102c8565b600081116109c05760405162461bcd60e51b815260206004820152601c60248201527f436f756e74206d7573742062652067726561746572207468616e20300000000060448201526064016102c8565b604080518082019091526001600160a01b03831681526000602082018190528267ffffffffffffffff8111156109f8576109f8611159565b604051908082528060200260200182016040528015610a4e57816020015b60408051608081018252600091810182815260608083019390935281526020810191909152815260200190600190039081610a165790505b50905060005b83811015610b4857604080516001808252818301909252600091816020015b6040805180820190915260608082526020820152815260200190600190039081610a73579050509050604051806040016040528060405180604001604052806003815260200162692e7560e81b81525081526020016040518060800160405280604f815260200161171f604f913981525081600081518110610af757610af7611420565b6020026020010181905250604051806040016040528085815260200182815250838381518110610b2957610b29611420565b6020026020010181905250508080610b4090611436565b915050610a54565b50600054604051632ad09ec360e21b81526001600160a01b039091169063ab427b0c90610b7990849060040161144f565b6020604051808303816000875af1158015610b98573d6000803e3d6000fd5b505050506040513d601f19601f82011682018060405250810190610bbc91906112de565b50836001600160a01b03167fea1af5ecbe3f633277a1fe187cbf01c0c04f3bc1dc2f134c3d116f8dc69534258460405161057091815260200190565b6040518060800160405280604f815260200161171f604f913981565b604080516001808252818301909252600091816020015b6060815260200190600190039081610c2b579050509050604051806040016040528060038152602001620612e360ec1b81525081600081518110610c7157610c71611420565b6020908102919091010152600080546040517fe07ede7e0000000000000000000000000000000000000000000000000000000081526001600160a01b039091169063e07ede7e90610cc890869086906004016114db565b600060405180830381865afa158015610ce5573d6000803e3d6000fd5b505050506040513d6000823e601f3d908101601f19168201604052610d0d9190810190611594565b90508051600014610d605760405162461bcd60e51b815260206004820152601360248201527f5469636b657420616c726561647920757365640000000000000000000000000060448201526064016102c8565b505050565b6040805160038082526080820190925260609160009190816020015b6040805180820190915260608082526020820152815260200190600190039081610d8157905050604080516080810182526003818301908152620612e360ec1b60608301528152905191925090602080830191610e0291017f7472756500000000000000000000000000000000000000000000000000000000815260040190565b60405160208183030381529060405281525081600081518110610e2757610e27611420565b602002602001018190525060405180604001604052806040518060400160405280600381526020017f612e31000000000000000000000000000000000000000000000000000000000081525081526020018481525081600181518110610e8f57610e8f611420565b6020026020010181905250604051806040016040528060405180604001604052806003815260200162692e7560e81b81525081526020016040518060800160405280604f81526020016116d0604f913981525081600281518110610ef557610ef5611420565b602090810291909101015292915050565b600081604051602001610f1b91815260200190565b6040516020818303038152906040529050601481511015610f7e5760405162461bcd60e51b815260206004820152601b60248201527f537562737472617465206164647265737320746f6f2073686f7274000000000060448201526064016102c8565b6000805b6014811015610fe857610f96816008611409565b838281518110610fa857610fa8611420565b01602001517fff0000000000000000000000000000000000000000000000000000000000000016901c919091179080610fe081611436565b915050610f82565b503360601b6bffffffffffffffffffffffff1916816bffffffffffffffffffffffff191614610d605760405162461bcd60e51b815260206004820152603160248201527f537562737472617465206164647265737320646f6573206e6f74206d6174636860448201527f2073656e6465722773206164647265737300000000000000000000000000000060648201526084016102c8565b6001600160a01b038116811461109457600080fd5b50565b6000602082840312156110a957600080fd5b81356110b48161107f565b9392505050565b6000602082840312156110cd57600080fd5b5035919050565b600080604083850312156110e757600080fd5b50508035926020909101359150565b60005b838110156111115781810151838201526020016110f9565b50506000910152565b600081518084526111328160208601602086016110f6565b601f01601f19169290920160200192915050565b6020815260006110b4602083018461111a565b634e487b7160e01b600052604160045260246000fd5b6040805190810167ffffffffffffffff8111828210171561119257611192611159565b60405290565b604051601f8201601f1916810167ffffffffffffffff811182821017156111c1576111c1611159565b604052919050565b600067ffffffffffffffff8211156111e3576111e3611159565b5060051b60200190565b6000806040838503121561120057600080fd5b823567ffffffffffffffff81111561121757600080fd5b8301601f8101851361122857600080fd5b8035602061123d611238836111c9565b611198565b82815260059290921b8301810191818101908884111561125c57600080fd5b938201935b838510156112835784356112748161107f565b82529382019390820190611261565b98969091013596505050505050565b600080604083850312156112a557600080fd5b82356112b08161107f565b946020939093013593505050565b81516001600160a01b0316815260208083015190820152604081016101ea565b6000602082840312156112f057600080fd5b815180151581146110b457600080fd5b60006020828403121561131257600080fd5b81516110b48161107f565b600081518084526020808501808196508360051b8101915082860160005b8581101561138b57828403895281516040815181875261135d8288018261111a565b91505086820151915085810387870152611377818361111a565b9a87019a955050509084019060010161133b565b5091979650505050505050565b8281526040602082015260006113b1604083018461131d565b949350505050565b6000604082840312156113cb57600080fd5b6113d361116f565b82516113de8161107f565b81526020928301519281019290925250919050565b634e487b7160e01b600052601160045260246000fd5b80820281158282048414176101ea576101ea6113f3565b634e487b7160e01b600052603260045260246000fd5b600060018201611448576114486113f3565b5060010190565b60006020808301818452808551808352604092508286019150828160051b87010184880160005b838110156114cd57603f198984030185528151805180516001600160a01b031685526020908101519085015287015160608785018190526114b98186018361131d565b968901969450505090860190600101611476565b509098975050505050505050565b600060408201848352602060408185015281855180845260608601915060608160051b870101935082870160005b8281101561153757605f1988870301845261152586835161111a565b95509284019290840190600101611509565b509398975050505050505050565b600067ffffffffffffffff83111561155f5761155f611159565b611572601f8401601f1916602001611198565b905082815283838301111561158657600080fd5b6110b48360208301846110f6565b600060208083850312156115a757600080fd5b825167ffffffffffffffff808211156115bf57600080fd5b818501915085601f8301126115d357600080fd5b81516115e1611238826111c9565b81815260059190911b8301840190848101908883111561160057600080fd5b8585015b838110156116c25780518581111561161c5760008081fd5b86016040818c03601f19018113156116345760008081fd5b61163c61116f565b898301518881111561164e5760008081fd5b8301603f8082018f136116615760008081fd5b6116718f8d840151868501611545565b8352838501519150898211156116875760008081fd5b81850194508e8186011261169d57600091508182fd5b50506116af8d8b850151848601611545565b818b015285525050918601918601611604565b509897505050505050505056fe68747470733a2f2f697066732e756e697175652e6e6574776f726b2f697066732f516d52697667575772506a4c5456424b4b356a6a43443635574d4761686d764e685862685173424b42673578717668747470733a2f2f697066732e756e697175652e6e6574776f726b2f697066732f516d65376e745178697550366d4b78395932437379586b69637671694d4e324855503955774d74375465616d5642a26469706673582212204ecc665d87e91db5fa07b708686087f2b7a06446b2c8f39cd8f99ac26bcd8c1164736f6c63430008130033",
  "linkReferences": {},
  "deployedLinkReferences": {}
}